{
  "address": "0x31cB463f6137796D6F8e0a83Edb39C32bC10D32C",
  "abi": [
    {
      "inputs": [
        {
          "internalType": "address",
          "name": "_farmToken",
          "type": "address"
        }
      ],
      "stateMutability": "payable",
      "type": "constructor"
    },
    {
      "stateMutability": "payable",
      "type": "fallback"
    },
    {
      "inputs": [
        {
          "internalType": "uint256",
          "name": "_numDays",
          "type": "uint256"
        }
      ],
      "name": "StakeEther",
      "outputs": [],
      "stateMutability": "payable",
      "type": "function"
    },
    {
      "inputs": [
        {
          "internalType": "uint256",
          "name": "_positionId",
          "type": "uint256"
        },
        {
          "internalType": "uint256",
          "name": "_newUnlockDate",
          "type": "uint256"
        }
      ],
      "name": "changeUnlockDate",
      "outputs": [],
      "stateMutability": "nonpayable",
      "type": "function"
    },
    {
      "inputs": [
        {
          "internalType": "uint256",
          "name": "_positionId",
          "type": "uint256"
        }
      ],
      "name": "closePosition",
      "outputs": [],
      "stateMutability": "nonpayable",
      "type": "function"
    },
    {
      "inputs": [],
      "name": "farmToken",
      "outputs": [
        {
          "internalType": "contract IERC20",
          "name": "",
          "type": "address"
        }
      ],
      "stateMutability": "view",
      "type": "function"
    },
    {
      "inputs": [
        {
          "internalType": "uint256",
          "name": "_numDays",
          "type": "uint256"
        }
      ],
      "name": "getInterestRate",
      "outputs": [
        {
          "internalType": "uint256",
          "name": "",
          "type": "uint256"
        }
      ],
      "stateMutability": "view",
      "type": "function"
    },
    {
      "inputs": [],
      "name": "getLockPeriods",
      "outputs": [
        {
          "internalType": "uint256[]",
          "name": "",
          "type": "uint256[]"
        }
      ],
      "stateMutability": "view",
      "type": "function"
    },
    {
      "inputs": [
        {
          "internalType": "uint256",
          "name": "_positionId",
          "type": "uint256"
        }
      ],
      "name": "getPositionById",
      "outputs": [
        {
          "components": [
            {
              "internalType": "uint256",
              "name": "positionId",
              "type": "uint256"
            },
            {
              "internalType": "address",
              "name": "walletAddress",
              "type": "address"
            },
            {
              "internalType": "uint256",
              "name": "createdDate",
              "type": "uint256"
            },
            {
              "internalType": "uint256",
              "name": "unlockDate",
              "type": "uint256"
            },
            {
              "internalType": "uint256",
              "name": "percentInterest",
              "type": "uint256"
            },
            {
              "internalType": "uint256",
              "name": "weiStaked",
              "type": "uint256"
            },
            {
              "internalType": "uint256",
              "name": "weiInterest",
              "type": "uint256"
            },
            {
              "internalType": "bool",
              "name": "open",
              "type": "bool"
            }
          ],
          "internalType": "struct Staking.Position",
          "name": "",
          "type": "tuple"
        }
      ],
      "stateMutability": "view",
      "type": "function"
    },
    {
      "inputs": [
        {
          "internalType": "address",
          "name": "_walletAddress",
          "type": "address"
        }
      ],
      "name": "getPositionIdsForAddress",
      "outputs": [
        {
          "internalType": "uint256[]",
          "name": "",
          "type": "uint256[]"
        }
      ],
      "stateMutability": "view",
      "type": "function"
    },
    {
      "inputs": [
        {
          "internalType": "uint256",
          "name": "_numDays",
          "type": "uint256"
        },
        {
          "internalType": "uint256",
          "name": "_basisPoints",
          "type": "uint256"
        }
      ],
      "name": "modifyLockPeriods",
      "outputs": [],
      "stateMutability": "nonpayable",
      "type": "function"
    },
    {
      "inputs": [],
      "name": "owner",
      "outputs": [
        {
          "internalType": "address",
          "name": "",
          "type": "address"
        }
      ],
      "stateMutability": "view",
      "type": "function"
    },
    {
      "inputs": [
        {
          "internalType": "address",
          "name": "",
          "type": "address"
        },
        {
          "internalType": "uint256",
          "name": "",
          "type": "uint256"
        }
      ],
      "name": "positionIdsByAddress",
      "outputs": [
        {
          "internalType": "uint256",
          "name": "",
          "type": "uint256"
        }
      ],
      "stateMutability": "view",
      "type": "function"
    },
    {
      "inputs": [
        {
          "internalType": "uint256",
          "name": "",
          "type": "uint256"
        }
      ],
      "name": "positions",
      "outputs": [
        {
          "internalType": "uint256",
          "name": "positionId",
          "type": "uint256"
        },
        {
          "internalType": "address",
          "name": "walletAddress",
          "type": "address"
        },
        {
          "internalType": "uint256",
          "name": "createdDate",
          "type": "uint256"
        },
        {
          "internalType": "uint256",
          "name": "unlockDate",
          "type": "uint256"
        },
        {
          "internalType": "uint256",
          "name": "percentInterest",
          "type": "uint256"
        },
        {
          "internalType": "uint256",
          "name": "weiStaked",
          "type": "uint256"
        },
        {
          "internalType": "uint256",
          "name": "weiInterest",
          "type": "uint256"
        },
        {
          "internalType": "bool",
          "name": "open",
          "type": "bool"
        }
      ],
      "stateMutability": "view",
      "type": "function"
    },
    {
      "inputs": [
        {
          "internalType": "uint256",
          "name": "",
          "type": "uint256"
        }
      ],
      "name": "tiers",
      "outputs": [
        {
          "internalType": "uint256",
          "name": "",
          "type": "uint256"
        }
      ],
      "stateMutability": "view",
      "type": "function"
    },
    {
      "stateMutability": "payable",
      "type": "receive"
    }
  ],
  "transactionHash": "0x521c17d1702f65b6df2e143fd2eb4b062da78636f6e32f712dca4b0ccbc4f82f",
  "args": [
    "0xd5bce816F394dD9a28F4f765521f2cd96c7c7727"
  ],
  "numDeployments": 1,
  "solcInputHash": "0f5e21eaea3d0106b3aab2d5f4b0d9f8",
  "bytecode": "0x6080604052604051620019b5380380620019b583398181016040528101906200002991906200019f565b336000806101000a81548173ffffffffffffffffffffffffffffffffffffffff021916908373ffffffffffffffffffffffffffffffffffffffff16021790555080600160006101000a81548173ffffffffffffffffffffffffffffffffffffffff021916908373ffffffffffffffffffffffffffffffffffffffff1602179055506000600a819055506102bc600d600060018152602001908152602001600020819055506103e8600d600060038152602001908152602001600020819055506104b0600d60006006815260200190815260200160002081905550600e60019080600181540180825580915050600190039060005260206000200160009091909190915055600e60039080600181540180825580915050600190039060005260206000200160009091909190915055600e600690806001815401808255809150506001900390600052602060002001600090919091909150555062000219565b6000815190506200019981620001ff565b92915050565b600060208284031215620001b257600080fd5b6000620001c28482850162000188565b91505092915050565b6000620001d882620001df565b9050919050565b600073ffffffffffffffffffffffffffffffffffffffff82169050919050565b6200020a81620001cb565b81146200021657600080fd5b50565b61178c80620002296000396000f3fe6080604052600436106100c65760003560e01c80638da5cb5b1161007f578063b0f0475b11610059578063b0f0475b146102a2578063b838ec86146102cb578063c2442f9314610308578063c7c9d05514610333576100cd565b80638da5cb5b1461020a57806399fbab8814610235578063a126d60114610279576100cd565b8063039af9eb146100cf5780630c196a741461010c5780630edfcbd01461014957806340d98a441461016557806341ee13be146101a257806345eae373146101cd576100cd565b366100cd57005b005b3480156100db57600080fd5b506100f660048036038101906100f19190610f3d565b61035c565b604051610103919061142f565b60405180910390f35b34801561011857600080fd5b50610133600480360381019061012e9190610f3d565b610374565b604051610140919061142f565b60405180910390f35b610163600480360381019061015e9190610f3d565b610391565b005b34801561017157600080fd5b5061018c60048036038101906101879190610eaf565b6105c2565b6040516101999190611316565b60405180910390f35b3480156101ae57600080fd5b506101b7610659565b6040516101c49190611316565b60405180910390f35b3480156101d957600080fd5b506101f460048036038101906101ef9190610ed8565b6106b1565b604051610201919061142f565b60405180910390f35b34801561021657600080fd5b5061021f6106e2565b60405161022c91906112d2565b60405180910390f35b34801561024157600080fd5b5061025c60048036038101906102579190610f3d565b610706565b60405161027098979695949392919061144a565b60405180910390f35b34801561028557600080fd5b506102a0600480360381019061029b9190610f3d565b61077b565b005b3480156102ae57600080fd5b506102c960048036038101906102c49190610f66565b610b6f565b005b3480156102d757600080fd5b506102f260048036038101906102ed9190610f3d565b610c42565b6040516102ff9190611413565b60405180910390f35b34801561031457600080fd5b5061031d610d1d565b60405161032a9190611338565b60405180910390f35b34801561033f57600080fd5b5061035a60048036038101906103559190610f66565b610d43565b005b600d6020528060005260406000206000915090505481565b6000600d6000838152602001908152602001600020549050919050565b6000600d600083815260200190815260200160002054116103e7576040517f08c379a00000000000000000000000000000000000000000000000000000000081526004016103de90611353565b60405180910390fd5b604051806101000160405280600a5481526020013373ffffffffffffffffffffffffffffffffffffffff168152602001428152602001620151808361042c91906115a4565b42610437919061151d565b8152602001600d6000848152602001908152602001600020548152602001348152602001610478600d60008581526020019081526020016000205434610df0565b815260200160011515815250600b6000600a5481526020019081526020016000206000820151816000015560208201518160010160006101000a81548173ffffffffffffffffffffffffffffffffffffffff021916908373ffffffffffffffffffffffffffffffffffffffff16021790555060408201518160020155606082015181600301556080820151816004015560a0820151816005015560c0820151816006015560e08201518160070160006101000a81548160ff021916908315150217905550905050600c60003373ffffffffffffffffffffffffffffffffffffffff1673ffffffffffffffffffffffffffffffffffffffff168152602001908152602001600020600a549080600181540180825580915050600190039060005260206000200160009091909190915055600a60008154809291906105ba9061166a565b919050555050565b6060600c60008373ffffffffffffffffffffffffffffffffffffffff1673ffffffffffffffffffffffffffffffffffffffff16815260200190815260200160002080548060200260200160405190810160405280929190818152602001828054801561064d57602002820191906000526020600020905b815481526020019060010190808311610639575b50505050509050919050565b6060600e8054806020026020016040519081016040528092919081815260200182805480156106a757602002820191906000526020600020905b815481526020019060010190808311610693575b5050505050905090565b600c60205281600052604060002081815481106106cd57600080fd5b90600052602060002001600091509150505481565b60008054906101000a900473ffffffffffffffffffffffffffffffffffffffff1681565b600b6020528060005260406000206000915090508060000154908060010160009054906101000a900473ffffffffffffffffffffffffffffffffffffffff16908060020154908060030154908060040154908060050154908060060154908060070160009054906101000a900460ff16905088565b3373ffffffffffffffffffffffffffffffffffffffff16600b600083815260200190815260200160002060010160009054906101000a900473ffffffffffffffffffffffffffffffffffffffff1673ffffffffffffffffffffffffffffffffffffffff161461081f576040517f08c379a000000000000000000000000000000000000000000000000000000000815260040161081690611373565b60405180910390fd5b60011515600b600083815260200190815260200160002060070160009054906101000a900460ff16151514610889576040517f08c379a000000000000000000000000000000000000000000000000000000000815260040161088090611393565b60405180910390fd5b6000600b600083815260200190815260200160002060070160006101000a81548160ff021916908315150217905550600b600082815260200190815260200160002060030154421115610aa85760003373ffffffffffffffffffffffffffffffffffffffff16600b600084815260200190815260200160002060050154604051610912906112bd565b60006040518083038185875af1925050503d806000811461094f576040519150601f19603f3d011682016040523d82523d6000602084013e610954565b606091505b5050905080610998576040517f08c379a000000000000000000000000000000000000000000000000000000000815260040161098f906113f3565b60405180910390fd5b6000600b6000848152602001908152602001600020600601549050600160009054906101000a900473ffffffffffffffffffffffffffffffffffffffff1673ffffffffffffffffffffffffffffffffffffffff1663a9059cbb33836040518363ffffffff1660e01b8152600401610a109291906112ed565b602060405180830381600087803b158015610a2a57600080fd5b505af1158015610a3e573d6000803e3d6000fd5b505050506040513d601f19601f82011682018060405250810190610a629190610f14565b610aa1576040517f08c379a0000000000000000000000000000000000000000000000000000000008152600401610a98906113b3565b60405180910390fd5b5050610b6c565b60003373ffffffffffffffffffffffffffffffffffffffff16600b600084815260200190815260200160002060050154604051610ae4906112bd565b60006040518083038185875af1925050503d8060008114610b21576040519150601f19603f3d011682016040523d82523d6000602084013e610b26565b606091505b5050905080610b6a576040517f08c379a0000000000000000000000000000000000000000000000000000000008152600401610b61906113f3565b60405180910390fd5b505b50565b3373ffffffffffffffffffffffffffffffffffffffff1660008054906101000a900473ffffffffffffffffffffffffffffffffffffffff1673ffffffffffffffffffffffffffffffffffffffff1614610bfd576040517f08c379a0000000000000000000000000000000000000000000000000000000008152600401610bf4906113d3565b60405180910390fd5b80600d600084815260200190815260200160002081905550600e8290806001815401808255809150506001900390600052602060002001600090919091909150555050565b610c4a610e13565b600b600083815260200190815260200160002060405180610100016040529081600082015481526020016001820160009054906101000a900473ffffffffffffffffffffffffffffffffffffffff1673ffffffffffffffffffffffffffffffffffffffff1673ffffffffffffffffffffffffffffffffffffffff16815260200160028201548152602001600382015481526020016004820154815260200160058201548152602001600682015481526020016007820160009054906101000a900460ff1615151515815250509050919050565b600160009054906101000a900473ffffffffffffffffffffffffffffffffffffffff1681565b3373ffffffffffffffffffffffffffffffffffffffff1660008054906101000a900473ffffffffffffffffffffffffffffffffffffffff1673ffffffffffffffffffffffffffffffffffffffff1614610dd1576040517f08c379a0000000000000000000000000000000000000000000000000000000008152600401610dc8906113d3565b60405180910390fd5b80600b6000848152602001908152602001600020600301819055505050565b60006127108284610e0191906115a4565b610e0b9190611573565b905092915050565b60405180610100016040528060008152602001600073ffffffffffffffffffffffffffffffffffffffff16815260200160008152602001600081526020016000815260200160008152602001600081526020016000151581525090565b600081359050610e7f81611711565b92915050565b600081519050610e9481611728565b92915050565b600081359050610ea98161173f565b92915050565b600060208284031215610ec157600080fd5b6000610ecf84828501610e70565b91505092915050565b60008060408385031215610eeb57600080fd5b6000610ef985828601610e70565b9250506020610f0a85828601610e9a565b9150509250929050565b600060208284031215610f2657600080fd5b6000610f3484828501610e85565b91505092915050565b600060208284031215610f4f57600080fd5b6000610f5d84828501610e9a565b91505092915050565b60008060408385031215610f7957600080fd5b6000610f8785828601610e9a565b9250506020610f9885828601610e9a565b9150509250929050565b6000610fae838361129f565b60208301905092915050565b610fc3816115fe565b82525050565b610fd2816115fe565b82525050565b6000610fe3826114d8565b610fed81856114f0565b9350610ff8836114c8565b8060005b838110156110295781516110108882610fa2565b975061101b836114e3565b925050600181019050610ffc565b5085935050505092915050565b61103f81611610565b82525050565b61104e81611610565b82525050565b61105d81611646565b82525050565b600061107060178361150c565b91507f4c6f636b757020706572696f64206e6f7420666f756e640000000000000000006000830152602082019050919050565b60006110b0601f8361150c565b91507f6d73672e73656e646572206e6f7420706f736974696f6e2063726561746f72006000830152602082019050919050565b60006110f060118361150c565b91507f506f736974696f6e206e6f74206f70656e0000000000000000000000000000006000830152602082019050919050565b600061113060158361150c565b91507f746f6b656e207472616e73666572206661696c656400000000000000000000006000830152602082019050919050565b600061117060148361150c565b91507f4d73672e73656e646572206e6f74206f776e65720000000000000000000000006000830152602082019050919050565b60006111b0600083611501565b9150600082019050919050565b60006111ca60088361150c565b91507f6e6f742073656e740000000000000000000000000000000000000000000000006000830152602082019050919050565b61010082016000820151611214600085018261129f565b5060208201516112276020850182610fba565b50604082015161123a604085018261129f565b50606082015161124d606085018261129f565b506080820151611260608085018261129f565b5060a082015161127360a085018261129f565b5060c082015161128660c085018261129f565b5060e082015161129960e0850182611036565b50505050565b6112a88161163c565b82525050565b6112b78161163c565b82525050565b60006112c8826111a3565b9150819050919050565b60006020820190506112e76000830184610fc9565b92915050565b60006040820190506113026000830185610fc9565b61130f60208301846112ae565b9392505050565b600060208201905081810360008301526113308184610fd8565b905092915050565b600060208201905061134d6000830184611054565b92915050565b6000602082019050818103600083015261136c81611063565b9050919050565b6000602082019050818103600083015261138c816110a3565b9050919050565b600060208201905081810360008301526113ac816110e3565b9050919050565b600060208201905081810360008301526113cc81611123565b9050919050565b600060208201905081810360008301526113ec81611163565b9050919050565b6000602082019050818103600083015261140c816111bd565b9050919050565b60006101008201905061142960008301846111fd565b92915050565b600060208201905061144460008301846112ae565b92915050565b600061010082019050611460600083018b6112ae565b61146d602083018a610fc9565b61147a60408301896112ae565b61148760608301886112ae565b61149460808301876112ae565b6114a160a08301866112ae565b6114ae60c08301856112ae565b6114bb60e0830184611045565b9998505050505050505050565b6000819050602082019050919050565b600081519050919050565b6000602082019050919050565b600082825260208201905092915050565b600081905092915050565b600082825260208201905092915050565b60006115288261163c565b91506115338361163c565b9250827fffffffffffffffffffffffffffffffffffffffffffffffffffffffffffffffff03821115611568576115676116b3565b5b828201905092915050565b600061157e8261163c565b91506115898361163c565b925082611599576115986116e2565b5b828204905092915050565b60006115af8261163c565b91506115ba8361163c565b9250817fffffffffffffffffffffffffffffffffffffffffffffffffffffffffffffffff04831182151516156115f3576115f26116b3565b5b828202905092915050565b60006116098261161c565b9050919050565b60008115159050919050565b600073ffffffffffffffffffffffffffffffffffffffff82169050919050565b6000819050919050565b600061165182611658565b9050919050565b60006116638261161c565b9050919050565b60006116758261163c565b91507fffffffffffffffffffffffffffffffffffffffffffffffffffffffffffffffff8214156116a8576116a76116b3565b5b600182019050919050565b7f4e487b7100000000000000000000000000000000000000000000000000000000600052601160045260246000fd5b7f4e487b7100000000000000000000000000000000000000000000000000000000600052601260045260246000fd5b61171a816115fe565b811461172557600080fd5b50565b61173181611610565b811461173c57600080fd5b50565b6117488161163c565b811461175357600080fd5b5056fea2646970667358221220176acac170c021f8bcb23de8da2442b462fac543750231040272197fb631436a64736f6c63430008000033",
  "devdoc": {
    "kind": "dev",
    "methods": {},
    "version": 1
  },
  "userdoc": {
    "kind": "user",
    "methods": {},
    "version": 1
  },
  "storageLayout": {
    "storage": [
      {
        "astId": 748,
        "contract": "contracts/Staking.sol:Staking",
        "label": "owner",
        "offset": 0,
        "slot": "0",
        "type": "t_address"
      },
      {
        "astId": 751,
        "contract": "contracts/Staking.sol:Staking",
        "label": "farmToken",
        "offset": 0,
        "slot": "1",
        "type": "t_contract(IERC20)663"
      },
      {
        "astId": 771,
        "contract": "contracts/Staking.sol:Staking",
        "label": "position",
        "offset": 0,
        "slot": "2",
        "type": "t_struct(Position)768_storage"
      },
      {
        "astId": 773,
        "contract": "contracts/Staking.sol:Staking",
        "label": "currentPositionId",
        "offset": 0,
        "slot": "10",
        "type": "t_uint256"
      },
      {
        "astId": 778,
        "contract": "contracts/Staking.sol:Staking",
        "label": "positions",
        "offset": 0,
        "slot": "11",
        "type": "t_mapping(t_uint256,t_struct(Position)768_storage)"
      },
      {
        "astId": 783,
        "contract": "contracts/Staking.sol:Staking",
        "label": "positionIdsByAddress",
        "offset": 0,
        "slot": "12",
        "type": "t_mapping(t_address,t_array(t_uint256)dyn_storage)"
      },
      {
        "astId": 787,
        "contract": "contracts/Staking.sol:Staking",
        "label": "tiers",
        "offset": 0,
        "slot": "13",
        "type": "t_mapping(t_uint256,t_uint256)"
      },
      {
        "astId": 790,
        "contract": "contracts/Staking.sol:Staking",
        "label": "lockPeriods",
        "offset": 0,
        "slot": "14",
        "type": "t_array(t_uint256)dyn_storage"
      }
    ],
    "types": {
      "t_address": {
        "encoding": "inplace",
        "label": "address",
        "numberOfBytes": "20"
      },
      "t_array(t_uint256)dyn_storage": {
        "base": "t_uint256",
        "encoding": "dynamic_array",
        "label": "uint256[]",
        "numberOfBytes": "32"
      },
      "t_bool": {
        "encoding": "inplace",
        "label": "bool",
        "numberOfBytes": "1"
      },
      "t_contract(IERC20)663": {
        "encoding": "inplace",
        "label": "contract IERC20",
        "numberOfBytes": "20"
      },
      "t_mapping(t_address,t_array(t_uint256)dyn_storage)": {
        "encoding": "mapping",
        "key": "t_address",
        "label": "mapping(address => uint256[])",
        "numberOfBytes": "32",
        "value": "t_array(t_uint256)dyn_storage"
      },
      "t_mapping(t_uint256,t_struct(Position)768_storage)": {
        "encoding": "mapping",
        "key": "t_uint256",
        "label": "mapping(uint256 => struct Staking.Position)",
        "numberOfBytes": "32",
        "value": "t_struct(Position)768_storage"
      },
      "t_mapping(t_uint256,t_uint256)": {
        "encoding": "mapping",
        "key": "t_uint256",
        "label": "mapping(uint256 => uint256)",
        "numberOfBytes": "32",
        "value": "t_uint256"
      },
      "t_struct(Position)768_storage": {
        "encoding": "inplace",
        "label": "struct Staking.Position",
        "members": [
          {
            "astId": 753,
            "contract": "contracts/Staking.sol:Staking",
            "label": "positionId",
            "offset": 0,
            "slot": "0",
            "type": "t_uint256"
          },
          {
            "astId": 755,
            "contract": "contracts/Staking.sol:Staking",
            "label": "walletAddress",
            "offset": 0,
            "slot": "1",
            "type": "t_address"
          },
          {
            "astId": 757,
            "contract": "contracts/Staking.sol:Staking",
            "label": "createdDate",
            "offset": 0,
            "slot": "2",
            "type": "t_uint256"
          },
          {
            "astId": 759,
            "contract": "contracts/Staking.sol:Staking",
            "label": "unlockDate",
            "offset": 0,
            "slot": "3",
            "type": "t_uint256"
          },
          {
            "astId": 761,
            "contract": "contracts/Staking.sol:Staking",
            "label": "percentInterest",
            "offset": 0,
            "slot": "4",
            "type": "t_uint256"
          },
          {
            "astId": 763,
            "contract": "contracts/Staking.sol:Staking",
            "label": "weiStaked",
            "offset": 0,
            "slot": "5",
            "type": "t_uint256"
          },
          {
            "astId": 765,
            "contract": "contracts/Staking.sol:Staking",
            "label": "weiInterest",
            "offset": 0,
            "slot": "6",
            "type": "t_uint256"
          },
          {
            "astId": 767,
            "contract": "contracts/Staking.sol:Staking",
            "label": "open",
            "offset": 0,
            "slot": "7",
            "type": "t_bool"
          }
        ],
        "numberOfBytes": "256"
      },
      "t_uint256": {
        "encoding": "inplace",
        "label": "uint256",
        "numberOfBytes": "32"
      }
    }
  }
}